:100000000C94A8020C94C5020C94C5020C94C50271
:100010000C94C5020C94C5020C94C5020C94C50244
:100020000C94C5020C94C5020C94C5020C94C50234
:100030000C94C5020C94C5020C94C5020C94C50224
:100040000C94C5020C94C5020C94C5020C94C50214
:100050000C94C50200000000003E5B4F5B3E3E6B0F
:100060004F6B3E1C3E7C3E1C183C7E3C181C577D52
:10007000571C1C5E7F5E1C00183C1800FFE7C3E79E
:10008000FF0018241800FFE7DBE7FF30483A060EB0
:100090002629792926407F050507407F05253F5AF7
:1000A0003CE73C5A7F3E1C1C08081C1C3E7F142267
:1000B0007F22145F5F005F5F06097F017F00668912
:1000C000956A606060606094A2FFA29408047E0458
:1000D0000810207E201008082A1C08081C2A08087E
:1000E0001E101010100C1E0C1E0C30383E3830063E
:1000F0000E3E0E06000000000000005F000000073A
:10010000000700147F147F14242A7F2A1223130867
:10011000646236495620500008070300001C224143
:10012000000041221C002A1C7F1C2A08083E0808E7
:100130000080703000080808080800006060002097
:10014000100804023E5149453E00427F400072497A
:100150004949462141494D331814127F102745451E
:1001600045393C4A49493141211109073649494934
:1001700036464949291E00001400000040340000A2
:10018000000814224114141414140041221408020B
:10019000015909063E415D594E7C1211127C7F497E
:1001A0004949363E414141227F4141413E7F4949D3
:1001B00049417F090909013E414151737F080808FF
:1001C0007F00417F41002040413F017F08142241D0
:1001D0007F404040407F021C027F7F0408107F3E2A
:1001E0004141413E7F090909063E4151215E7F0997
:1001F000192946264949493203017F01033F4040FE
:10020000403F1F2040201F3F4038403F63140814E8
:100210006303047804036159494D43007F41414120
:100220000204081020004141417F04020102044001
:1002300040404040000307080020545478407F2885
:100240004444383844444428384444287F3854547B
:10025000541800087E090218A4A49C787F0804049E
:100260007800447D40002040403D007F102844003D
:1002700000417F40007C047804787C0804047838CE
:1002800044444438FC1824241818242418FC7C08FE
:10029000040408485454542404043F44243C40407B
:1002A000207C1C2040201C3C4030403C442810282E
:1002B000444C9090907C4464544C44000836410077
:1002C0000000770000004136080002010204023CF1
:1002D0002623263C1EA1A161123A4040207A3854C0
:1002E0005455592155557941225454784221555439
:1002F000784020545579400C1E527212395555558C
:1003000059395454545939555454580000457C4176
:100310000002457D420001457C407D1211127DF0B6
:10032000282528F07C545545002054547C547C0AE0
:10033000097F4932494949323A4444443A324A48A9
:1003400048303A4141217A3A42402078009DA0A0AD
:100350007D3D4242423D3D4040403D3C24FF2424FF
:10036000487E4943662B2FFC2F2BFF0929F620C01E
:10037000887E090320545479410000447D4130486F
:10038000484A32384040227A007A0A0A727D0D19B2
:10039000317D2629292F28262929292630484D4014
:1003A00020380808080808080808382F10C8ACBA10
:1003B0002F102834FA00007B000008142A1422228F
:1003C000142A1408AA005500AAAA55AA55AA000082
:1003D00000FF00101010FF00141414FF001010FF95
:1003E00000FF1010F010F0141414FC001414F700A7
:1003F000FF0000FF00FF1414F404FC141417101F76
:1004000010101F101F1414141F00101010F0000003
:1004100000001F101010101F10101010F01000001E
:1004200000FF101010101010101010FF100000002E
:10043000FF140000FF00FF00001F10170000FC0465
:10044000F414141710171414F404F40000FF00F748
:1004500014141414141414F700F7141414171410AB
:10046000101F101F141414F4141010F010F00000DA
:100470001F101F0000001F14000000FC140000F0FB
:1004800010F01010FF10FF141414FF141010101FA0
:1004900000000000F010FFFFFFFFFFF0F0F0F0F0B1
:1004A000FFFFFF0000000000FFFF0F0F0F0F0F38CE
:1004B00044443844FC4A4A4A347E02020606027E1C
:1004C000027E0263554941633844443C04407E2027
:1004D0001E2006027E020299A5E7A5991C2A492A38
:1004E0001C4C7201724C304A4D4D303048784830C7
:1004F000BC625A463D3E494949007E0101017E2ABF
:100500002A2A2A2A44445F444440514A44404044F1
:100510004A51400000FF0103E080FF000008086B23
:100520006B083612362436060F090F06000018181D
:100530000000001010003040FF0101001F01011EEB
:1005400000191D1712003C3C3C3C0000000000005C
:1005500011241FBECFE5D8E0DEBFCDBF11E0A0E67D
:10056000B0E0EEE8FFE202C005900D92A83CB107B2
:10057000D9F711E0A8ECB1E001C01D92A73DB10789
:10058000E1F70E948A0F0C94C5170C940000CF93DA
:10059000DF93FC01EB014A305105B8F0CA01861B1C
:1005A000970B6AE070E00E94B3146E177F07E8F0C3
:1005B000CF01B3E0880F991FBA95E1F7EE0FFF1F47
:1005C000E80FF91FEC0FFD1F10C09C01220F331F15
:1005D00063E0880F991F6A95E1F7280F391F2C0FE8
:1005E0003D1F4217530708F0F901CF01DF91CF916A
:1005F00008959C018FB78F778FBFE199FECF3FBBE6
:100600002EBB6DBBE29AE19A8FB780688FBF0895C9
:100610008F929F92AF92BF92CF92DF92FF920F93F1
:100620001F93CF93DF938C01C0E0D0E023C0FF2065
:1006300021F4CE01F801618111C0F1E0FF1621F42F
:10064000C401F80160810AC0F2E0FF1621F4C5017F
:10065000F801628103C0C601F80163810E94F902BA
:10066000F394F4E0FF1619F724960C5F1F4FC03582
:10067000D10581F04E010894811C911C92E0A92EB5
:10068000B12CAC0EBD1E83E0C82ED12CCC0EDD1ECD
:10069000FF24CDCFDF91CF911F910F91FF90DF907D
:1006A000CF90BF90AF909F908F9008959C018FB78F
:1006B0008F778FBFE199FECF3FBB2EBBE09A8FB7FC
:1006C00080688FBF8DB390E008958F929F92AF9214
:1006D000BF92CF92DF92FF920F931F93CF93DF933E
:1006E0008C01C0E0D0E029C0FF2031F4CE010E948F
:1006F0005603F801818317C0F1E0FF1631F4C401FD
:100700000E945603F80180830EC0F2E0FF1631F418
:10071000C5010E945603F801828305C0C6010E94EC
:100720005603F8018383F394F4E0FF16E9F6249668
:100730000C5F1F4FC035D10581F04E010894811C1C
:10074000911C32E0A32EB12CAC0EBD1E23E0C22EB4
:10075000D12CCC0EDD1EFF24C7CFDF91CF911F918E
:100760000F91FF90DF90CF90BF90AF909F908F90B0
:1007700008951F938FEF8ABBD898D998DA98DB98A1
:1007800082E090E00E94560310E04F9708F411E0D9
:1007900086E090E00E9456034F9710F4126001C06B
:1007A0001D7F8AE090E00E9456034F9710F414607A
:1007B00001C01B7F8EE090E00E9456034F9710F41B
:1007C000186001C0177F1BBBDC98DD98DE98DF9AAC
:1007D000DC98DD98DE98DF9882E190E00E94560375
:1007E0004F9710F4116001C01E7F86E190E00E94D7
:1007F00056034F9710F4126001C01D7F8AE190E00C
:100800000E9456034F9710F4146001C01B7F8EE1C5
:1008100090E00E9456034F9710F4186001C0177FB4
:100820001BBBDC9ADD98DE98DF9ADC9ADD98DE98B7
:10083000DF9882E290E00E9456034F9710F4116017
:1008400001C01E7F86E290E00E9456034F9710F48D
:10085000126001C01D7F8AE290E00E9456034F970C
:1008600010F4146001C01B7F8EE290E00E945603DA
:100870004F9710F4186001C0177F1BBBDC98DD9AFE
:10088000DE98DF9ADC98DD9ADE98DF9882E390E0CC
:100890000E9456034F9710F4116001C01E7F86E33B
:1008A00090E00E9456034F9710F4126001C01D7F24
:1008B0008AE390E00E9456034F9710F4146001C041
:1008C0001B7F8EE390E00E9456034F9710F4186050
:1008D00001C0177F1BBBDC9ADD9ADE98DF9ADC9A99
:1008E000DD9ADE98DF9882E490E00E9456034F97ED
:1008F00010F4116001C01E7F86E490E00E94560350
:100900004F9710F4126001C01D7F8AE490E00E94AE
:1009100056034F9710F4146001C01B7F8EE490E0E3
:100920000E9456034F9718F4812F886002C0812FD0
:10093000877F8BBBDC98DD98DE9ADF9ADC98DD98A8
:10094000DE9ADF981F91089583E084BB8CEF85BB0E
:1009500080E0A89AA99AA9988F5F8430D1F708956A
:10096000A898A99AA99880E09A9904C09A9BFECF6A
:1009700081E008959B9904C09B9BFECF82E008957F
:100980009C9904C09C9BFECF83E008959D9904C070
:100990009D9BFECF8AE008959E9904C09E9BFECF4A
:1009A0008BE008958F5F8436F9F6A89AA99AA998E2
:1009B00080E09A9904C09A9BFECF84E008959B99A9
:1009C00004C09B9BFECF85E008959C9904C09C9B2E
:1009D000FECF86E008959D9904C09D9BFECF8CE0DC
:1009E00008959E9904C09E9BFECF8DE008959F9927
:1009F00004C09F9BFECF8EE008958F5F8436C9F6BA
:100A0000A89AA99AA99880E09A9904C09A9BFECFC7
:100A100087E008959B9904C09B9BFECF88E00895D2
:100A20009C9904C09C9BFECF89E008958F5F84361B
:100A300059F7A89AA99AA99880E09B9904C09B9B12
:100A4000FECF80E008959E9904C09E9BFECF8FE06C
:100A500008958F5F843689F78FEF089520ED37E092
:100A6000F9013197F1F701974FEF8F3F9407C1F7E5
:100A700008958F929F92AF92BF92CF92DF92EF92A2
:100A8000FF921F93CF93DF93FC017C01DC0120E0F8
:100A900038EC822F6AE00E94A714905D9C93822F0D
:100AA0000E94A714805D11968C93119712963C9327
:100AB00012972F5F1496243161F78AE0838385E1D2
:100AC000878343E0438735E0378728E0238B9CE02A
:100AD000978B82E3838F278F93A386E187A333A726
:100AE00097A78BE383AB80E587AB43AF27AFE05C91
:100AF000FF4F338334964383349623833496238382
:100B0000C0E0D0E022C0112321F4CE01F7016181C1
:100B10000FC0113021F4C401F701608109C0123007
:100B200021F4C501F701628103C0C601F7016381A9
:100B30000E94F9021F5F143031F7249684E090E0A0
:100B4000E80EF91EC035D10581F04E010894811CD4
:100B5000911C52E0A52EB12CAC0EBD1E43E0C42E5C
:100B6000D12CCC0EDD1E10E0CECFDF91CF911F91A6
:100B7000FF90EF90DF90CF90BF90AF909F908F90BD
:100B8000089500D000D020E630E0EDB7FEB7328304
:100B90002183948383830E94C7140F900F900F903A
:100BA0000F9008959C0183E0283E380738F100D06B
:100BB00000D000D0EDB7FEB7319684E690E0ADB737
:100BC000BEB712969C938E931197C90168EE73E09D
:100BD0000E94B31473836283C90168EE73E00E94BC
:100BE000B314958384830E94C714EDB7FEB736967D
:100BF0000FB6F894FEBF0FBEEDBF08952115310565
:100C000079F000D000D086E790E0ADB7BEB712967D
:100C10009C938E93119714963C932E9313970AC02E
:100C200000D000D082E890E0EDB7FEB792838183D8
:100C3000148213820E94C7140F900F900F900F9090
:100C40000895CF92DF92EF92FF920F931F93CF936D
:100C5000DF938C010E94F812BC0180E090E00E94BA
:100C6000D81200D08BE890E0EDB7FEB79283818375
:100C70000E94C7140F900F900E94F2126C010E9404
:100C8000F8127C01C0E0D0E021C08A3058F4682F0F
:100C9000772767FD7095CE014FEF5FEF0E94C70287
:100CA000EC010DC08A3059F4CE016AE070E00E9478
:100CB000B314EB0181E060EE77E00E940714C601F7
:100CC000B7010E94D812CE010E94D2050E94B00442
:100CD0008F30D9F6C017D10790F300D088E990E0A3
:100CE000EDB7FEB7928381830E94C7140F900F90D7
:100CF000C8010E94D2058AE00E94C1130E94F81226
:100D0000BC016E5F7F4F80E090E048EC50E02FE147
:100D100030E00E94131200D086EA90E0EDB7FEB7F3
:100D2000928381830E94C7140F900F90CE01801B85
:100D3000910B0E94D205DF91CF911F910F91FF90EF
:100D4000EF90DF90CF9008952F923F924F925F9255
:100D50006F927F928F929F92AF92BF92CF92DF92CB
:100D6000EF92FF920F931F93DF93CF9300D000D0A9
:100D7000CDB7DEB75C017C836B832A0139011A830E
:100D80000983170146010E94F8127C01CC24DD245E
:100D90008FEFC81609F44BC0AB81BC81DC90BBE07F
:100DA000CB1669F4E5E1DE1611F4E3E136C0DD208F
:100DB000B9F1DA94AB81BC81DC92D39431C0BCE050
:100DC000CB1669F48D2D8350813120F4EB81FC81A9
:100DD000808326C0F5E1DF1619F5E4E11EC0FDE0D1
:100DE000CF1649F483E18D15D8F0D394AB81BC8143
:100DF000DC92DA9415C0BEE0CB1691F4E0E1ED157B
:100E000040F0F3E0DF0EAB81BC81DC92BDEFDB0E86
:100E100007C0E4E1DE1621F4E5E1AB81BC81EC938F
:100E2000AB81BC818C918D1511F494E6D92EC20151
:100E3000B3010E94E112B3E1BD15C8F081E00E9448
:100E4000EA120D2D10E0B80183E0660F771F8A9536
:100E5000E1F76E0D7F1D8DEC90E00E94D8120A0D17
:100E60001B1DF801808190E0F401099529C0F4E18F
:100E7000DF1669F482E00E94EA1284E190E062EDFC
:100E800070E00E94D81200D0E4EBF0E00FC0F5E172
:100E9000DF16B1F482E00E94EA1286EE90E062ED85
:100EA00070E00E94D81200D0ECEBF0E0ADB7BEB716
:100EB0001296FC93EE9311970E94C7140F900F9017
:100EC000C20169817A810E94E112AB81BC818C915F
:100ED000843108F06CC081E00E94EA12EB81FC8151
:100EE000608170E013E0660F771F1A95E1F76E0DD1
:100EF0007F1D8DEC90E00E94D812AB81BC818C915B
:100F0000F501E80FF11D808190E0F4010995EB8176
:100F1000FC818081682F70E0F501E60FF71F80816A
:100F2000882359F4B3E0660F771FBA95E1F76E0D89
:100F30007F1D8DEC90E00E94D812F9E0FC15C8F0FE
:100F4000AB81BC81EC91F0E085010E0F1F1F6C2D71
:100F5000772767FD7095EE0FFF1FE20DF31D4081AF
:100F60005181F801808190E00E94C702D8018C93E2
:100F700045C0BAE0CB1691F4EB81FC818081F5018C
:100F8000E80FF11D80818823C9F16AE00E94A7144F
:100F9000808381E0B3010E94071430C0FFE0CF16C8
:100FA00069F5AB81BC81DC90E4E1EC9327C084312E
:100FB00069F482E00E94EA1284E190E062ED70E060
:100FC0000E94D81200D0E4EBF0E00EC08531B1F4FD
:100FD00082E00E94EA1286EE90E062ED70E00E94EC
:100FE000D81200D0ECEBF0E0ADB7BEB71296FC9390
:100FF000EE9311970E94C7140F900F900E94B004B7
:10100000C82EFFE08F1709F0C3CEAB81BC818C9155
:10101000843108F4C1CE0F900F900F900F90CF91B4
:10102000DF911F910F91FF90EF90DF90CF90BF90D5
:10103000AF909F908F907F906F905F904F903F9078
:101040002F9008952F923F924F925F926F927F92CE
:101050008F929F92AF92BF92CF92DF92EF92FF92C8
:101060000F931F93DF93CF93CDB7DEB7ED970FB6F6
:10107000F894DEBF0FBECDBFF82EE92E80EE97E0CC
:101080000E9485118E010E5F1F4F84E1D8011D92D1
:101090008A95E9F780E090E060EE77E00E94E11247
:1010A00082E00E94EA1284E690E060E070E04AECA0
:1010B00050E02FE130E00E94DB1188EC90E060E02E
:1010C00070E04AEC50E02FE130E00E94DB1189E152
:1010D00090E060E070E00E94D81200D081EC90E0D7
:1010E000EDB7FEB7928381830E94C7140F900F90D3
:1010F00088E790E060E070E00E94D81286EC90E013
:101100000E94DC140E94F812BC0188E790E00E9463
:10111000D8128CEC90E00E94DC1481EE90E060E04C
:1011200070E00E94D81286EC90E00E94DC140E94CD
:10113000F812BC0181EE90E00E94D81281ED90E09F
:101140000E94DC140E94F812BC0180E090E04AE4A6
:1011500051E02FE130E00E94131280E090E06AEC51
:1011600070E04AE451E02FE130E00E94131281E088
:101170000E94EA128AE00E94C1130E94F812382EDF
:10118000292E2F2D3E2DC9013C014801232D322D42
:10119000C9017C0183015401A6ED4A2EA0E05A2E1C
:1011A000F6E1CF2ED12CCC0EDD1E85E090E0B7010C
:1011B0000E94D81200D000D000D0EDB7FEB7319613
:1011C000ADB7BEB712965C924E921197D8011196A8
:1011D0008C911197828313828C91848315820E9453
:1011E000C714EDB7FEB736960FB6F894FEBF0FBE24
:1011F000EDBF89E690E0B7010E94D812D80113969E
:101200008C9190E00E94D2058DEC90E0B7010E9495
:10121000D812F50181915F0190E00E94D20588E02B
:1012200090E0E80EF91E0C5F1F4FAC14BD0409F0EE
:10123000BCCF82E00E94EA1284E190E062ED70E0AF
:101240000E94D81200D084EB90E0ADB7BEB71296E2
:101250009C938E9311970E94C7140F900F9086EE67
:1012600090E062ED70E00E94D81200D08CEB90E02C
:10127000EDB7FEB7928381830E94C71488E2D5013F
:101280001D928A95E9F7F5010F900F902FEF30E04E
:101290007501CE01CE9621933193E817F907D9F75E
:1012A000198280E090E0632D722D0E94D812CE0149
:1012B0000296BE016F5F7F4F40E050E020EE37E0C6
:1012C00000E018EFE2EDCE2EE5E0DE2E0E94A4064F
:1012D0008981843189F4F4018081882319F0D30154
:1012E00013968C930894811C911CE4E0F0E06E0E40
:1012F0007F1E8A149B0479F7ED960FB6F894DEBF33
:101300000FBECDBFCF91DF911F910F91FF90EF9056
:10131000DF90CF90BF90AF909F908F907F906F9015
:101320005F904F903F902F900895CF92DF92EF9271
:10133000FF920F931F93CF93DF93182F092F80E015
:1013400098EF0E94851180EE97E060E078EF0E94B0
:10135000E11282E00E94EA1280E590E060E070E035
:101360004AEC50E02FE130E00E94DB1184EB90E08A
:1013700060E070E04AEC50E02FE130E00E94DB11C9
:101380008FE090E060E070E00E94D81200D081EC25
:1013900090E0ADB7BEB712969C938E9311970E94C2
:1013A000C7140F900F9084E690E060E070E00E9418
:1013B000D8128BED90E00E94DC140E94F812BC0160
:1013C0008FE590E00E94D81200D081EE90E0EDB75A
:1013D000FEB7928381830E94C7140F900F908CED0B
:1013E00090E060E070E00E94D81286EC90E00E94ED
:1013F000DC140E94F812BC018EEB90E00E94D8121F
:1014000088EE90E00E94DC140E94F812BC0180E09B
:1014100090E04AE451E02FE130E00E94131281E0B5
:101420000E94EA128AE00E94C113212F302FC901C5
:10143000EC0110E006EDC02E00E0D02EB3EFEB2E55
:10144000B0E0FB2E0E94F812BC0185E090E00E9403
:10145000D81200D000D000D0EDB7FEB73196ADB7AE
:10146000BEB71296DC92CE92119789818283138245
:101470008881848315820E94C714EDB7FEB7369623
:101480000FB6F894FEBF0FBEEDBF0E94F812BC016C
:1014900085E590E00E94D81200D000D0EDB7FEB7ED
:1014A0003196ADB7BEB71296FC92EE9211978A8133
:1014B000828313820E94C7140F900F900F900F9099
:1014C0000E94F812BC0189EB90E00E94D8128B8137
:1014D00090E00E94D2051F5F2496143109F0B2CF2C
:1014E00080E090E06AEC70E04AE451E02FE130E007
:1014F0000E94131282E00E94EA1282E890E062EDFC
:1015000070E00E94D81280EE97E06FE078E70E94CA
:10151000E11200D08CEB90E0EDB7FEB792838183AF
:101520000E94C7140F900F900E94B0048F30E1F713
:10153000DF91CF911F910F91FF90EF90DF90CF90AF
:1015400008952F923F924F925F926F927F928F9267
:101550009F92AF92BF92CF92DF92EF92FF920F9342
:101560001F93DF93CF93CDB7DEB7EF970FB6F89405
:10157000DEBF0FBECDBFF82EE92E8FEF97E00E94A1
:1015800085118E010E5F1F4F84E1D8011D928A954F
:10159000E9F78FE198EF6FEF77E00E94E11282E0C8
:1015A0000E94EA1284E690E060E070E04AEC50E0CD
:1015B0002FE130E00E94DB1188EC90E060E070E009
:1015C0004AEC50E02FE130E00E94DB1189E190E02D
:1015D00060E070E00E94D81200D081EC90E0EDB79E
:1015E000FEB7928381830E94C7140F900F9088E703
:1015F00090E060E070E00E94D8128BED90E00E94D5
:10160000DC1481EE90E060E070E00E94D81288EF78
:1016100090E00E94DC140E94F812BC0180E090E08F
:101620004AE451E02FE130E00E94131280E090E0A4
:101630006AEC70E04AE451E02FE130E00E941312BE
:1016400081E00E94EA128AE00E94C1130E94F8120F
:101650008EAF9FAF67018D2D9C2D3C0148012EADB3
:101660003FADC9017C018D2D9C2D8C015401A3EF50
:101670004A2EA0E05A2EF6E12F2E312C2C0E3D1EC4
:1016800085E090E0B7010E94D81200D000D000D0D1
:10169000EDB7FEB7319666ED70E0ADB7BEB7129606
:1016A0007C936E931197D80111968C911197828338
:1016B00013828C91848315820E94C714EDB7FEB704
:1016C00036960FB6F894FEBF0FBEEDBF89E690E0E8
:1016D000B7010E94D81200D000D0EDB7FEB7319606
:1016E000ADB7BEB712965C924E921197D801129682
:1016F0008C91828313820E94C7140F900F900F90D9
:101700000F908DEC90E0B7010E94D81200D000D06D
:10171000EDB7FEB73196ADB7BEB712965C924E925A
:101720001197D5018D915D01828313820E94C714A8
:10173000E8E0F0E0EE0EFF1E0C5F1F4F0F900F90E1
:101740000F900F90A214B30409F09ACF82E00E9488
:10175000EA1284E190E062ED70E00E94D81200D0BD
:1017600084EB90E0ADB7BEB712969C938E93119721
:101770000E94C7140F900F9086EE90E062ED70E02B
:101780000E94D81200D08CEB90E0EDB7FEB79283A8
:1017900081830E94C71488E2D5011D928A95E9F7DA
:1017A000D5018D2D9C2DFC010F900F904AEF50E03C
:1017B00075019E01225C3F4F8281BA01681B71094D
:1017C0006D937D933496A217B307B1F7198280E029
:1017D00090E06EAD7FAD0E94D812CE010296BE01A0
:1017E0006F5F7F4F4FE158EF2FEF37E00FE010E0D2
:1017F000E1ECCE2EE5E0DE2E0E94A4068981843144
:1018000091F4D4019C91992321F0F3018281890FF5
:1018100082830894811C911C64E070E0660E771E40
:101820008A149B0471F7EF960FB6F894DEBF0FBED3
:10183000CDBFCF91DF911F910F91FF90EF90DF907F
:10184000CF90BF90AF909F908F907F906F905F9060
:101850004F903F902F9008954F925F926F927F929A
:101860008F929F92BF92CF92DF92EF92FF920F934F
:101870001F93CF93DF93F82EE92E162F072F80E0CA
:1018800090E00E9485118FEF9FEF60E070E00E9472
:10189000E11282E00E94EA1284E090E062E070E0EF
:1018A0000E94D81200D08FEF90E0ADB7BEB712966D
:1018B0009C938E9311970E94C7140F900F9087E509
:1018C00090E062E070E00E94D81200D081EC90E0DD
:1018D000EDB7FEB7928381830E94C7140F900F90DB
:1018E0008BE990E062E070E00E94D81200D086ECB4
:1018F00090E0ADB7BEB712969C938E9311970E945D
:10190000C7140F900F9085EF90E062E070E00E94A6
:10191000D81286E091E00E94DC140E94F812BC010B
:101920006B5F7F4F80E090E040E451E02FE130E0DA
:101930000E9413120E94F812BC01665F7F4F80E084
:1019400090E00E94D81281E00E94EA12212F302FED
:10195000C9016C012F2D3E2DC901EC01EE24FF249D
:10196000BB2403EF402E00E0502E16ED612E10E058
:10197000712EBCE08B2EB1E09B2EF6019081992355
:1019800009F46FC08A81891B8A830E94F812BC0106
:1019900085E090E00E94D81200D000D0EDB7FEB7ED
:1019A0003196ADB7BEB712965C924E921197D601A2
:1019B0008C91828313820E94C7140F900F900F9016
:1019C0000F900E94F812BC0185E590E00E94D812A9
:1019D00000D000D000D0EDB7FEB73196ADB7BEB79E
:1019E00012967C926E9211978981828313828881EC
:1019F000848315820E94C714EDB7FEB736960FB6E2
:101A0000F894FEBF0FBEEDBF0E94F812BC0181E941
:101A100090E00E94D81200D000D0EDB7FEB731960A
:101A2000ADB7BEB712969C928E9211978B8182832E
:101A300013820E94C7140F900F900F900F900E9476
:101A4000F812BC018BEE90E00E94D8120B81F601D7
:101A50008081089F80011124C8010E94D205E00EF8
:101A6000F11EB3940894C11CD11C2496F4E1BF1656
:101A700009F083CF0E94F812AC014E5F5F4F80E502
:101A800090E060E070E02FE130E00E94DB110E9406
:101A9000F812AC014E5F5F4F8CE890E060E070E0C0
:101AA0002FE130E00E94DB110E94F812BC016E5F52
:101AB0007F4F80E090E040E451E02FE130E00E9471
:101AC00013120E94F812BC016B5F7F4F8AE590E011
:101AD0000E94D81200D086E091E0ADB7BEB7129652
:101AE0009C938E9311970E94C7140F900F900E94A1
:101AF000F812BC018BEE90E00E94D812C7010E9440
:101B0000D2050E94F812AC014E5F5F4F86EE90E066
:101B100060E070E02FE130E00E94DB110E94F812DB
:101B2000BC016E5F7F4F80E090E040E451E02FE128
:101B300030E00E9413128AE00E94C113E114F10404
:101B400021F0C7010E94210604C085E191E00E94B6
:101B5000DC1482E00E94EA1282E890E06CED70E012
:101B60000E94D8128FEF9FEF6FE170E00E94E112A8
:101B700000D08CEB90E0EDB7FEB7928381830E949A
:101B8000C7140F900F900E94B0048F30E1F7DF91DF
:101B9000CF911F910F91FF90EF90DF90CF90BF906A
:101BA0009F908F907F906F905F904F9008952F92AD
:101BB0003F924F925F926F927F928F929F92AF92DD
:101BC000BF92CF92DF92EF92FF920F931F93DF931A
:101BD000CF93CDB7DEB7ED970FB6F894DEBF0FBE4B
:101BE000CDBF382E292E80E090E00E9485118E0115
:101BF0000E5F1F4F84E1D8011D928A95E9F78FEFA0
:101C00009FEF60E070E00E94E11282E00E94EA1221
:101C100084E690E060E070E04AEC50E02FE130E0D4
:101C20000E94DB1188EC90E060E070E04AEC50E04C
:101C30002FE130E00E94DB1189E190E060E070E08C
:101C40000E94D81200D081EC90E0EDB7FEB79283ED
:101C500081830E94C7140F900F9088E790E060E0A6
:101C600070E00E94D8128BED90E00E94DC1481EEAF
:101C700090E060E070E00E94D81285E291E00E945E
:101C8000DC140E94F812BC0180E090E04AE451E0CC
:101C90002FE130E00E94131280E090E06AEC70E0E7
:101CA0004AE451E02FE130E00E94131281E00E94EB
:101CB000EA128AE00E94C1130E94F8122C01232D1F
:101CC000322DC9016C0158017C0108E110E0B6ED2C
:101CD0006B2EB0E07B2EA3EF8A2EA0E09A2E85E03B
:101CE00090E0B8010E94D81200D000D000D0EDB72B
:101CF000FEB73196ADB7BEB712967C926E92119731
:101D0000D70111968C911197828313828C918483D1
:101D100015820E94C714EDB7FEB736960FB6F89439
:101D2000FEBF0FBEEDBF89E690E0B8010E94D81259
:101D300000D000D0EDB7FEB73196ADB7BEB7129662
:101D40009C928E921197D70112968C918283138266
:101D50000E94C7140F900F900F900F908DEC90E0A1
:101D6000B8010E94D81200D000D0EDB7FEB731966E
:101D7000ADB7BEB712969C928E921197D5018D91F8
:101D80005D01828313820E94C714085F1F4FE4E045
:101D9000F0E0EE0EFF1E0F900F900F900F90083B9B
:101DA000110509F09CCF82E00E94EA1284E190E0E4
:101DB00062ED70E00E94D81200D084EB90E0ADB7E5
:101DC000BEB712969C938E9311970E94C7140F90E2
:101DD0000F9086EE90E062ED70E00E94D81200D085
:101DE0008CEB90E0EDB7FEB7928381830E94C7141D
:101DF000FE01769688E2DF011D928A95E9F70F9041
:101E00000F907F019E01225C3F4FD60112968C916C
:101E10008083118284E090E0C80ED91E3296E217CA
:101E2000F30799F7198280E090E0B2010E94D8127E
:101E3000F2E0AF2EB12CAC0EBD1EC501BE016F5F2E
:101E40007F4F4FEF5FEF20E030E00FE110E0E1EC7B
:101E5000CE2EE5E0DE2E0E94A4068981843129F48D
:101E6000832D922DB5010E942C0CED960FB6F8949F
:101E7000DEBF0FBECDBFCF91DF911F910F91FF90BD
:101E8000EF90DF90CF90BF90AF909F908F907F901A
:101E90006F905F904F903F902F9008958FE190E06A
:101EA00060EE7FEF0E94E11281E490E060E070E07C
:101EB0000E94D81283E00E94EA128CE291E00E9414
:101EC000DC148FE190E060EE7FEF0E94E11282E08F
:101ED0000E94EA1287E391E00E94DC1488E491E01A
:101EE0000E94DC1489E591E00E94DC1480E791E017
:101EF0000E94DC148FE791E00E94DC1400D08AE895
:101F000091E0EDB7FEB7928381830E94C7140F90D2
:101F10000F9008956F927F928F929F92AF92BF928F
:101F2000CF92DF92EF92FF920F931F93DF93CF93A5
:101F3000CDB7DEB7C255D0400FB6F894DEBF0FBEA6
:101F4000CDBF7E010894E11CF11CC7010E9465030E
:101F500086EB91E09093D4018093D3010E94C0104E
:101F60000E94A40481E00E94AB1280EE9FEF0E94C9
:101F7000851100E06396FFAEEEAE63976296EFAC1C
:101F800062976396FFAC639783EF682E80E0782EAC
:101F90001EE9812E11E0912E01C0012FC7010E9480
:101FA00008030E94B903023009F466C0033028F424
:101FB000002361F0013091F75BC0043009F464C084
:101FC000043008F45DC0053049F762C00E944E0F2E
:101FD0000E94F2125C010E94F8126C0110E031C004
:101FE0008A3060F4682F772767FD7095812F90E025
:101FF00043E650E00E94C702182F0CC08A3051F40B
:10200000812F6AE00E94A714182F81E060EE7FEF15
:102010000E940714C501B6010E94D81200D000D05A
:10202000EDB7FEB73196ADB7BEB712967C926E9201
:102030001197128313820E94C7140F900F900F9074
:102040000F900E94B0048F3059F6812F8150853057
:1020500008F4A3CF80EE9FEF0E94851100D0EDB76A
:10206000FEB7928281820E94C7140F900F9096CF84
:10207000C7010E94D70D0FC0C7010E94A10A0BC063
:10208000C7010E94950907C0C7010E94220803C02A
:10209000C7010E94390580EE9FEF0E94851100E084
:1020A0007DCFBA9AC29A089587B3836887BB80E5CB
:1020B0008DB9709AC19A08958FB9779BFECF089514
:1020C00098B39C7F98BB9DE09A95F1F78FB9779B69
:1020D000FECFC19A0895C09A92E09A95F1F7C198FF
:1020E0008FB9779BFECFC19A0895BF92CF92DF92AE
:1020F000EF92FF920F931F93F82E192FB62EC72E33
:10210000E42E052FD22E8AE2DBDF812FE4DF8F2D34
:10211000E2DF802FE0DF8E2DDEDF8BE2D1DF8C2D42
:10212000DADF8B2DD8DF8D2DD6DF8D2DD4DF8CE23D
:10213000C7DF1F910F91FF90EF90DF90CF90BF907E
:102140000895C29A80ED97E028EC30E0F9013197CC
:10215000F1F70197D9F7C29880ED97E028EC30E0CD
:10216000F9013197F1F70197D9F7C29A80ED97E01D
:1021700028EC30E0F9013197F1F70197D9F708958C
:10218000BA9AC29A91DFDDDF81E09ADF80E197E2BF
:1021900028EC30E0F9013197F1F70197D9F78BEC92
:1021A0008FDF89E398DF8CE296DF80E094DF84E3C1
:1021B00092DF82E090DF8FEC83DF80E08CDF81ECC8
:1021C0008ADF80E388DF88EE7BDF85E884DF80E0DC
:1021D00082DF88E780DF8AEE73DF80E07CDF80E0EB
:1021E0007ADF8DEE6DDF84E676DF83E074DF82E1F7
:1021F00072DF81E870DF87EF63DF80E26CDF80EC05
:102200005FDF83E268DF81EC5BDF80E164DF85EC28
:1022100057DF8EE360DF88E25EDF87EC51DF86E820
:102220005ADF86E34DDF88E456DF8AE349DF85E540
:1022300052DF81EB45DF80E04EDF88E14CDF86EB4B
:102240003FDF88E048DF82E846DF87E244DF82EF55
:1022500037DF80E040DF86E233DF81E03CDF80EE85
:102260002FDF8FE038DF81E336DF8BE234DF8CE075
:1022700032DF8EE030DF88E02EDF8EE42CDF81EF6E
:102280002ADF87E328DF87E026DF80E124DF83E0A1
:1022900022DF8EE020DF89E01EDF80E01CDF81EEA0
:1022A0000FDF80E018DF8EE016DF84E114DF83E0CB
:1022B00012DF81E110DF87E00EDF81E30CDF81ECCC
:1022C0000ADF88E408DF88E006DF8FE004DF8CE0C7
:1022D00002DF81E300DF86E3FEDE8FE0FCDE81E1EA
:1022E000EFDE80EB94E028EC30E0F9013197F1F774
:1022F0000197D9F789E2E4DE08951F93182F892FFB
:10230000EADE812FE8DE1F910895EF92FF920F938E
:102310001F93CF93DF937C014091C4015091C5017D
:102320002091C6013091C7014150504021503040AA
:1023300080E090E060E070E0D8DE00E010E00CC0EB
:10234000C701DBDF21968091C6019091C701C817B4
:10235000D907B0F30F5F1F4F8091C4019091C50161
:102360000817190718F4C0E0D0E0EDCFDF91CF9146
:102370001F910F91FF90EF900895CF93DF93FC0191
:102380009B01EA018091C4019091C501E817F9070A
:1023900078F48091C6019091C7016817790740F4DD
:1023A000CF013196AF012F5F3F4F9FDECE01A5DFFA
:1023B000DF91CF9108950F931F93CF93DF93DC01AB
:1023C000EA0189018091C4019091C501A817B9075C
:1023D00028F58091C6019091C70168177907F0F43C
:1023E000FB0131972091C6013091C701CF01840FC5
:1023F000951F8217930730F0C091C601D091C70195
:10240000C61BD70BEC0FFD1FCD01AD019F016DDE8B
:1024100003C0C80172DF21972097D9F7DF91CF91D0
:102420001F910F9108950F931F93CF93DF93FC019A
:10243000DB01EA0189018091C4019091C501E8178F
:10244000F90730F58091C6019091C70168177907A7
:10245000F8F4AF01415050402091C4013091C501C2
:10246000CA018C0F9D1F8217930730F0C091C401E1
:10247000D091C501CE1BDF0B4C0F5D1FCF01BD01FD
:102480009D0133DE03C0C80138DF21972097D9F7BB
:10249000DF91CF911F910F910895CF92DF92EF922C
:1024A000FF920F931F93CF93DF93DC017A01E90131
:1024B00068018091C4019091C501A817B90708F07F
:1024C00041C08091C6019091C70168177907D0F586
:1024D000AD01415050402091C4013091C501CA0165
:1024E0008E0D9F1D8217930730F0E090C401F0908D
:1024F000C501EA1AFB0AFB0131972091C601309110
:10250000C701CF018C0F9D1F8217930730F0C09138
:10251000C601D091C701C61BD70B4E0D5F1DEC0F36
:10252000FD1FCD019F01E1DD8E0107C0C601E5DE83
:1025300021972097D9F7015010400115110511F08E
:10254000E701F7CFDF91CF911F910F91FF90EF90AF
:10255000DF90CF9008951F93182F86E3B1DD13709D
:10256000113039F01130A0F0123029F0133081F41D
:1025700004C088E203C088E80CC088EEACDD80E4CB
:1025800091E09093C5018093C40180EF90E00AC070
:1025900088E4A1DD80EF90E09093C5018093C401B1
:1025A00080E491E09093C7018093C6011F91089544
:1025B0009093CF018093CE017093CB016093CA01B9
:1025C00008959093CD018093CC017093C9016093DD
:1025D000C8010895893028F4882309F481E08093A4
:1025E000D00108952091CE013091CF01C901089505
:1025F0002091CA013091CB01C90108958091D00189
:1026000090E008952F923F924F925F926F927F9247
:102610008F929F92AF92BF92CF92DF92EF92FF92F2
:102620000F931F93DF93CF93CDB7DEB728970FB6E5
:10263000F894DEBF0FBECDBF1B013C832B831E83EE
:102640000D835E2C98878F838091C4019091C50182
:102650002F8138852817390708F07AC08091C60184
:102660009091C7016817790708F072C06E2C772423
:10267000C301880F991F860D971D880F991F820F20
:10268000931F181619060CF063C0C30153E0880F9E
:10269000991F5A95E1F7820D931D181619060CF033
:1026A00057C085E0489F5001112484E590E0A80EB2
:1026B000B91E49011A829A81953011F4442402C04E
:1026C000F501449061017101198240FE12C0F1E0F0
:1026D0005F1631F48F819885B7014B815C8111C001
:1026E000C401B601452D50E0252D30E00B811C8141
:1026F00012C021E0521639F48F819885B7014D81BF
:102700005E813BDE09C0C401B601452D50E0252D98
:1027100030E00D811E81C1DE39813F5F3983C60CF7
:10272000D71C0894E11CF11C383011F04694CDCF31
:102730008A818F5F8A83860C971CEF81F88531969A
:10274000F887EF830894A11CB11C863009F0B3CF41
:1027500028960FB6F894DEBF0FBECDBFCF91DF91A4
:102760001F910F91FF90EF90DF90CF90BF90AF90AF
:102770009F908F907F906F905F904F903F902F90A1
:102780000895EF920F931F93482F8A30B9F4209148
:10279000CA013091CB018091D00190E0E3E0880F35
:1027A000991FEA95E1F7820F931F9093CB018093D5
:1027B000CA011092CF011092CE0125C08D3019F1BF
:1027C0008091CE019091CF016091CA017091CB01AF
:1027D0002091CC013091CD010091C8011091C90127
:1027E000E090D0010FDF4091CE015091CF01809158
:1027F000D00126E0829FC0011124840F951F909381
:10280000CF018093CE011F910F91EF900895CF9249
:10281000DF92EF92FF920F931F93CF93DF93082FD6
:10282000E090CC01F090CD01C091C801D091C901D8
:102830007093CD016093CC017093C9016093C8017E
:1028400010E0FAEFCF2EFFEFDF2E3DC02091CE013A
:102850003091CF018091D00190E0AC014C9DC0013E
:102860004D9D900D5C9D900D1124820F931F209122
:10287000CA013091CB019093CF018093CE01309368
:10288000CB012093CA0180E07CDF2091CE01309102
:10289000CF018091D00190E0AC014C9DC0014D9DD5
:1028A000900D5C9D900D1124820F931F2091CA0101
:1028B0003091CB019093CF018093CE013093CB0127
:1028C0002093CA011F5F101708F2F092CD01E09229
:1028D000CC01D093C901C093C801DF91CF911F9162
:1028E0000F91FF90EF90DF90CF900895CF93DF93FB
:1028F000C091CE01D091CF018CE743DF8091CA0116
:102900009091CB01D093CF01C093CE019093CB0196
:102910008093CA0188E893E128EC30E0F90131970F
:10292000F1F70197D9F780E02CDF88E893E128ECF4
:1029300030E0F9013197F1F70197D9F7D093CF0142
:10294000C093CE01DF91CF9108951BDF0895991BAD
:1029500079E004C0991F961708F0961B881F7A9596
:10296000C9F780950895AA1BBB1B51E107C0AA1F98
:10297000BB1FA617B70710F0A61BB70B881F991F20
:102980005A95A9F780959095BC01CD010895A0E0D6
:10299000B0E0EDECF4E10C949E17FE0135966191E8
:1029A00071918091D3019091D401AF010E941115D2
:1029B0002096E2E00C94BA170F931F93CF93DF9306
:1029C0008C01E091D301F091D401838181FF21C07A
:1029D000C0E0D0E00DC0E091D301F091D40120859A
:1029E0003185BF01F9010995892B11F0CFEFDFEF98
:1029F000F80181918F01882371F7E091D301F09163
:102A0000D401208531858AE0BF01F9010995892B20
:102A100011F0CFEFDFEFCE01DF91CF911F910F913A
:102A20000895ABE0B0E0E7E1F5E10C948E173C01CE
:102A30002B015A01FC0117821682838181FD03C09C
:102A40006FEF7FEFC6C19AE0892E1E010894211C0A
:102A5000311CF3012381F20123FD859123FF819134
:102A60002F01882309F4B2C1853239F423FD859101
:102A700023FF81912F01853229F490E0B3010E9458
:102A80000417E7CF982FFF24EE249924FFE1FF15C8
:102A9000D0F09B3269F09C3228F4903259F0933296
:102AA00091F40EC09D3249F0903369F441E024C0A6
:102AB00052E0F52A84E0F82A28C098E0F92A25C0D7
:102AC000E0E1FE2A22C0F7FC29C0892F80538A301A
:102AD00070F4F6FE05C0989C902C1124980E15C039
:102AE000E89CE02C1124E80EF0E2FF2A0EC09E3292
:102AF00029F4F6FC6BC140E4F42A07C09C3619F4B3
:102B000050E8F52A02C0983649F4F20123FD959168
:102B100023FF91912F01992309F0B8CF892F855474
:102B2000833018F08052833038F444E050E0A40E33
:102B3000B51E5FE359830FC0933631F0933779F0B8
:102B4000933509F056C020C0F5018081898342E0A9
:102B500050E0A40EB51E610101E010E012C0F501C5
:102B6000C080D180F6FC03C06FEF7FEF02C0692DFB
:102B700070E042E050E0A40EB51EC6010E94F916B6
:102B80008C015FE7F52214C0F501C080D180F6FC0E
:102B900003C06FEF7FEF02C0692D70E042E050E0AC
:102BA000A40EB51EC6010E94EE168C0150E8F52A4F
:102BB000F3FE07C01AC080E290E0B3010E94041740
:102BC000EA948E2D90E008171907A8F30EC0F601BD
:102BD000F7FC8591F7FE81916F0190E0B3010E94AF
:102BE0000417E110EA94015010400115110579F71E
:102BF000EAC0943611F0993669F5F7FE08C0F50180
:102C0000208131814281538184E090E00AC0F50146
:102C1000808191819C01442737FD4095542F82E0AB
:102C200090E0A80EB91E9FE6F92257FF09C0509503
:102C30004095309521953F4F4F4F5F4FE0E8FE2A7A
:102C4000CA01B901A1012AE030E00E943017D82E54
:102C5000D21840C0953729F41F2D1F7E2AE030E09E
:102C60001DC01F2D197F9F3661F0903720F49835D5
:102C700009F0ACC00FC0903739F0983709F0A6C002
:102C800004C028E030E00AC0106114FD146020E1A7
:102C900030E004C014FD166020E132E017FF08C0E8
:102CA000F501608171818281938144E050E008C028
:102CB000F50180819181BC0180E090E042E050E02C
:102CC000A40EB51EA1010E943017D82ED2188FE78E
:102CD000F82EF122F6FE0BC05EEFF522D91438F47F
:102CE000F4FE07C0F2FC05C08FEEF82202C01D2DD5
:102CF00001C0192DF4FE0DC0FE01ED0DF11D808106
:102D0000803319F499EEF92208C01F5FF2FE05C066
:102D100003C08F2D867809F01F5F0F2DF3FC14C0C0
:102D2000F0FE0FC01E1510F09D2C0BC09D2C9E0CAC
:102D3000911A1E2D06C080E290E0B3010E94041794
:102D40001F5F1E15C0F304C01E1510F4E11A01C068
:102D5000EE2404FF0FC080E390E0B3010E9404174B
:102D600002FF1DC001FD03C088E790E00EC088E5AA
:102D700090E00BC0802F867891F001FF02C08BE2BB
:102D800001C080E2F7FC8DE290E0B3010E940417DD
:102D900006C080E390E0B3010E9404179A94D9140E
:102DA000C0F3DA94F101ED0DF11D808190E0B301E3
:102DB0000E940417DD20A9F706C080E290E0B3016D
:102DC0000E940417EA94EE20C1F743CEF301668116
:102DD0007781CB012B96E2E10C94AA17FC010590B8
:102DE000615070400110D8F7809590958E0F9F1F0D
:102DF0000895FC016150704001900110D8F7809552
:102E000090958E0F9F1F08950F931F93CF93DF937D
:102E10008C01EB018B8181FF1BC082FF0DC02E81D5
:102E20003F818C819D812817390764F4E881F981FD
:102E30000193F983E88306C0E885F985802F099519
:102E4000892B31F48E819F8101969F838E8302C0EE
:102E50000FEF1FEFC801DF91CF911F910F910895E0
:102E6000FA01AA27283051F1203181F1E8946F93BB
:102E70006E7F6E5F7F4F8F4F9F4FAF4FB1E03ED061
:102E8000B4E03CD0670F781F891F9A1FA11D680FFF
:102E9000791F8A1F911DA11D6A0F711D811D911D32
:102EA000A11D20D009F468943F912AE0269F1124A7
:102EB0003019305D3193DEF6CF010895462F47700B
:102EC000405D4193B3E00FD0C9F7F6CF462F4F7066
:102ED000405D4A3318F0495D31FD4052419302D0C4
:102EE000A9F7EACFB4E0A69597958795779567956A
:102EF000BA95C9F700976105710508959B01AC016A
:102F00000A2E06945795479537952795BA95C9F790
:102F1000620F731F841F951FA01D08952F923F926B
:102F20004F925F926F927F928F929F92AF92BF92D9
:102F3000CF92DF92EF92FF920F931F93CF93DF9385
:102F4000CDB7DEB7CA1BDB0B0FB6F894DEBF0FBEE2
:102F5000CDBF09942A88398848885F846E847D842F
:102F60008C849B84AA84B984C884DF80EE80FD8031
:102F70000C811B81AA81B981CE0FD11D0FB6F894A7
:0E2F8000DEBF0FBECDBFED010895F894FFCF68
:102F8E00256875005250253368752E2530336875C7
:102F9E002E3030300A005250253768752E303030C2
:102FAE000A00525025313168750A0054554E414978
:102FBE0020202020203A20000A544F54414C20203B
:102FCE002020203A20000A4B656D62616C69616EAB
:102FDE00203A2000434F4E4649524D004241434B4A
:102FEE00004B4F4445004841524741004C414D4132
:102FFE00004241525500256325630053544F434B05
:10300E000028756E697429002870657220756E69C6
:10301E007429002568687500444942454C49004AA8
:10302E00554D4C414800544F54414C00256868752D
:10303E002E30303000544944414B20414441204908
:10304E004E5055540044494A55414C0050494C4944
:10305E0048204D454E5500312E20426172616E67FB
:10306E002064696A75616C00322E20426172616E55
:10307E006720646962656C6900332E2043656B209E
:10308E0053746F636B2064616E20686172676100B8
:10309E00342E2047616E7469204861726761003575
:1030AE002E2044656661756C74004D6173756B6B93
:1030BE00616E2050696C6968616E203A20000A4981
:1030CE006E707574206D656E752068616E79612005
:1030DE0031202D2035000000000200000000A51454
:0830EE00000000004001F000A9
:00000001FF
